{
  "contractName": "CarRental",
  "abi": [
    {
      "inputs": [],
      "stateMutability": "nonpayable",
      "type": "constructor"
    },
    {
      "inputs": [],
      "name": "car_details",
      "outputs": [
        {
          "internalType": "string",
          "name": "",
          "type": "string"
        }
      ],
      "stateMutability": "view",
      "type": "function",
      "constant": true
    },
    {
      "inputs": [],
      "name": "rental_details",
      "outputs": [
        {
          "internalType": "string",
          "name": "",
          "type": "string"
        }
      ],
      "stateMutability": "view",
      "type": "function",
      "constant": true
    },
    {
      "inputs": [],
      "name": "users",
      "outputs": [
        {
          "internalType": "string",
          "name": "",
          "type": "string"
        }
      ],
      "stateMutability": "view",
      "type": "function",
      "constant": true
    },
    {
      "inputs": [
        {
          "internalType": "string",
          "name": "u",
          "type": "string"
        }
      ],
      "name": "addUsers",
      "outputs": [],
      "stateMutability": "nonpayable",
      "type": "function"
    },
    {
      "inputs": [],
      "name": "getUsers",
      "outputs": [
        {
          "internalType": "string",
          "name": "",
          "type": "string"
        }
      ],
      "stateMutability": "view",
      "type": "function",
      "constant": true
    },
    {
      "inputs": [
        {
          "internalType": "string",
          "name": "cd",
          "type": "string"
        }
      ],
      "name": "addCars",
      "outputs": [],
      "stateMutability": "nonpayable",
      "type": "function"
    },
    {
      "inputs": [],
      "name": "getCars",
      "outputs": [
        {
          "internalType": "string",
          "name": "",
          "type": "string"
        }
      ],
      "stateMutability": "view",
      "type": "function",
      "constant": true
    },
    {
      "inputs": [
        {
          "internalType": "string",
          "name": "rd",
          "type": "string"
        }
      ],
      "name": "setRentals",
      "outputs": [],
      "stateMutability": "nonpayable",
      "type": "function"
    },
    {
      "inputs": [],
      "name": "getRentals",
      "outputs": [
        {
          "internalType": "string",
          "name": "",
          "type": "string"
        }
      ],
      "stateMutability": "view",
      "type": "function",
      "constant": true
    }
  ],
  "bytecode": "0x608060405234801561001057600080fd5b506040518060200160405280600081525060009080519060200190610036929190610088565b50604051806020016040528060008152506002908051906020019061005c929190610088565b506040518060200160405280600081525060019080519060200190610082929190610088565b5061018c565b8280546100949061015a565b90600052602060002090601f0160209004810192826100b657600085556100fd565b82601f106100cf57805160ff19168380011785556100fd565b828001600101855582156100fd579182015b828111156100fc5782518255916020019190600101906100e1565b5b50905061010a919061010e565b5090565b5b8082111561012757600081600090555060010161010f565b5090565b7f4e487b7100000000000000000000000000000000000000000000000000000000600052602260045260246000fd5b6000600282049050600182168061017257607f821691505b602082108114156101865761018561012b565b5b50919050565b6108d48061019b6000396000f3fe608060405234801561001057600080fd5b50600436106100925760003560e01c80635723ad36116100665780635723ad361461010d5780635ea5da201461012957806360da9a7614610147578063e91bed9814610165578063f20202751461018157610092565b8062ce8e3e146100975780630262ba0d146100b557806317c39286146100d3578063508b5758146100f1575b600080fd5b61009f61019f565b6040516100ac9190610689565b60405180910390f35b6100bd610231565b6040516100ca9190610689565b60405180910390f35b6100db6102bf565b6040516100e89190610689565b60405180910390f35b61010b600480360381019061010691906107f4565b610351565b005b610127600480360381019061012291906107f4565b61036b565b005b610131610385565b60405161013e9190610689565b60405180910390f35b61014f610417565b60405161015c9190610689565b60405180910390f35b61017f600480360381019061017a91906107f4565b6104a5565b005b6101896104bf565b6040516101969190610689565b60405180910390f35b6060600080546101ae9061086c565b80601f01602080910402602001604051908101604052809291908181526020018280546101da9061086c565b80156102275780601f106101fc57610100808354040283529160200191610227565b820191906000526020600020905b81548152906001019060200180831161020a57829003601f168201915b5050505050905090565b6001805461023e9061086c565b80601f016020809104026020016040519081016040528092919081815260200182805461026a9061086c565b80156102b75780601f1061028c576101008083540402835291602001916102b7565b820191906000526020600020905b81548152906001019060200180831161029a57829003601f168201915b505050505081565b6060600180546102ce9061086c565b80601f01602080910402602001604051908101604052809291908181526020018280546102fa9061086c565b80156103475780601f1061031c57610100808354040283529160200191610347565b820191906000526020600020905b81548152906001019060200180831161032a57829003601f168201915b5050505050905090565b806002908051906020019061036792919061054d565b5050565b806000908051906020019061038192919061054d565b5050565b6060600280546103949061086c565b80601f01602080910402602001604051908101604052809291908181526020018280546103c09061086c565b801561040d5780601f106103e25761010080835404028352916020019161040d565b820191906000526020600020905b8154815290600101906020018083116103f057829003601f168201915b5050505050905090565b600280546104249061086c565b80601f01602080910402602001604051908101604052809291908181526020018280546104509061086c565b801561049d5780601f106104725761010080835404028352916020019161049d565b820191906000526020600020905b81548152906001019060200180831161048057829003601f168201915b505050505081565b80600190805190602001906104bb92919061054d565b5050565b600080546104cc9061086c565b80601f01602080910402602001604051908101604052809291908181526020018280546104f89061086c565b80156105455780601f1061051a57610100808354040283529160200191610545565b820191906000526020600020905b81548152906001019060200180831161052857829003601f168201915b505050505081565b8280546105599061086c565b90600052602060002090601f01602090048101928261057b57600085556105c2565b82601f1061059457805160ff19168380011785556105c2565b828001600101855582156105c2579182015b828111156105c15782518255916020019190600101906105a6565b5b5090506105cf91906105d3565b5090565b5b808211156105ec5760008160009055506001016105d4565b5090565b600081519050919050565b600082825260208201905092915050565b60005b8381101561062a57808201518184015260208101905061060f565b83811115610639576000848401525b50505050565b6000601f19601f8301169050919050565b600061065b826105f0565b61066581856105fb565b935061067581856020860161060c565b61067e8161063f565b840191505092915050565b600060208201905081810360008301526106a38184610650565b905092915050565b6000604051905090565b600080fd5b600080fd5b600080fd5b600080fd5b7f4e487b7100000000000000000000000000000000000000000000000000000000600052604160045260246000fd5b6107018261063f565b810181811067ffffffffffffffff821117156107205761071f6106c9565b5b80604052505050565b60006107336106ab565b905061073f82826106f8565b919050565b600067ffffffffffffffff82111561075f5761075e6106c9565b5b6107688261063f565b9050602081019050919050565b82818337600083830152505050565b600061079761079284610744565b610729565b9050828152602081018484840111156107b3576107b26106c4565b5b6107be848285610775565b509392505050565b600082601f8301126107db576107da6106bf565b5b81356107eb848260208601610784565b91505092915050565b60006020828403121561080a576108096106b5565b5b600082013567ffffffffffffffff811115610828576108276106ba565b5b610834848285016107c6565b91505092915050565b7f4e487b7100000000000000000000000000000000000000000000000000000000600052602260045260246000fd5b6000600282049050600182168061088457607f821691505b602082108114156108985761089761083d565b5b5091905056fea26469706673582212209c163da6145bd2ba47ae6a97ed4d2be08863582643b779dbf91a75e3d814157764736f6c634300080b0033",
  "immutableReferences": {},
  "source": "pragma solidity >= 0.8.11 <= 0.8.11;\r\n\r\ncontract CarRental {\r\n    string public users;\r\n    string public car_details;\r\n    string public rental_details;\r\n\r\n    //function to save user details to Blockchain\r\n    function addUsers(string memory u) public {\r\n        users = u;\t\r\n    }\r\n    //call to get user details details\t\r\n    function getUsers() public view returns (string memory) {\r\n        return users;\r\n    }\r\n\r\n    //function to save car details in Blockchain\r\n    function addCars(string memory cd) public {\r\n        car_details = cd;\t\r\n    }\r\n    //call to get car details\t\r\n    function getCars() public view returns (string memory) {\r\n        return  car_details;\r\n    }\r\n    //function to save rent details\r\n    function setRentals(string memory rd) public {\r\n        rental_details = rd;\t\r\n    }\r\n    //return tramsaction details\r\n    function getRentals() public view returns (string memory) {\r\n        return rental_details;\r\n    }\r\n\r\n    constructor() public {\r\n        users = \"\";\r\n\trental_details = \"\";\r\n\tcar_details = \"\";\r\n    }\r\n}",
  "sourcePath": "C:\\Users\\Admin\\Desktop\\Blockchain\\hello-eth\\node_modules\\.bin\\contracts\\CarRental.sol",
  "compiler": {
    "name": "solc",
    "version": "0.8.11+commit.d7f03943.Emscripten.clang"
  },
  "schemaVersion": "3.4.4",
  "updatedAt": "2023-11-07T10:26:13.285Z",
  "networkType": "ethereum",
  "devdoc": {
    "kind": "dev",
    "methods": {},
    "version": 1
  },
  "userdoc": {
    "kind": "user",
    "methods": {},
    "version": 1
  }
}